:080003000000000000000000F5
:101114004100010001080004E100000000017E001C
:041124004100000086
:1007EA00EF1FAA0670011E4A600BE4FDEDC394C810
:0507FA0050EE0D80F738
:0107FF0022D7
:03000B0002077772
:10077700C0E0C0F0C083C082C0D075D000C000C048
:1007870001C002C003C004C005C006C007758CF8CD
:10079700758ACD78E11201F4EF2401FFE43EFEE40F
:1007A7003DFDE43CFC78E112020DE47FE77E03FDAA
:1007B700FC78E1120200D31201E3400C78E1120247
:1007C7001900000000787E06D007D006D005D004B7
:1007D700D003D002D001D000D0D0D082D083D0F0C7
:0307E700D0E0322D
:05117200D2B302118060
:03117700C2B322DE
:03117A00C29122FD
:03117D00D29122EA
:1008000075210278267C007D017BFF7A0079037ECA
:10081000007F081200DEE490002EF0A3F0121057C3
:1008200012107D7F31120D60788576AA0876410816
:1008300076AA7F09120F167E007F207D007B007A4A
:100840000079BF1203DC7E007F087D007B017A0007
:1008500079261203DC7E007F207D017B017A0079FE
:10086000021203DC12117A121177E4F50BC2A712FF
:100870000FB8E50BD39405400612117A750B1E05CF
:100880000BE4900022F0900022E0C3940440024167
:10089000067F057E001207EA752600752700752879
:1008A0007F752900752A00752B7F752C00752D002A
:1008B000752E80E4FBFD7F16120C28EF603975263B
:1008C0000075270075287F752900752A00752B8013
:1008D000E4FBFD7F161206CDEF601C7E007F207DBD
:1008E000007B007A0079BF1203DCE490002EF0F563
:1008F00008900000F00172787FE675F00984F52217
:10090000900000E0FFE522D39F4003E522F0E49051
:100910000023F0900023E0C39522400221FEE490E2
:10092000002EF0A3F0900024F0900024E0FFC39488
:1009300004503BEF75F008A424BFF9E4FAFBC001B2
:10094000900023E075F009A42481F9E4A801FCFDDE
:10095000D001FE7F081203B8EF700B90002E04F058
:100960009000247404F0900024E004F080BB900018
:100970002EE0600221F6E4900025F0900025E0FFD3
:10098000C394045071EF75F008A424BFF9E4A801E2
:10099000FCFD7B017A007926FE7F081203B8EF7018
:1009A0004D900023E075F009A42481F9E4FAFBC01E
:1009B00001900025E075F008A424BFF9E4A801FC2B
:1009C000FDD001FE7F081200DE900025E075F008E2
:1009D000A424BFF9E4FAFB787F7C00FDFE7F0812B7
:1009E00000DE90002F7401F09000257404F0900058
:1009F00025E004F08085900023E004F021139000AE
:100A000022E004F00186E5086401700201729000A2
:100A100000E075F008A4FFAEF0787F7C007D007BDD
:100A2000007A0079BF1200DE900000E075F008A4A3
:100A3000FF120F16750801900000E075F008A4FF82
:100A4000120408E4900000F012117212117DE4F516
:0F0A50000B7F64FE1207EA1211801211770172F8
:10105700758921438780759850758BFF758DFFD2F1
:101067008ED28CD2A975B0FF75A0FF7590FF7580E1
:06107700FFD2AF0211726E
:03118000B2952203
:10107D00120DFAEF600A7F0A7E00121030120DFA7F
:0D108D00EF600A7F0A7E00121030120DFA8B
:01109A002233
:0A116800C2998F993099FDC29922B7
:020F1600AE0724
:100F1800AD06E4FCC299F52375240075257FF526F6
:100F2800752700752880AF051DEF6017AB230525D1
:100F3800E525AA247002052414F9120104FF1211F0
:100F48006880E3EE14FDAF051DEF6015AB2605289C
:100F5800E528AA277002052714F912010462048003
:0B0F6800E5AF041211687F0D12116844
:010F7300225B
:1010300075CBF875CAD175CDF875CCD1C2AD75C870
:1010400004D2CAEF1FAC0670011E4C600730CFFD02
:07105000C2CF80EFC2CA22EB
:0C115C00E42FF582E4347FF583E0FF22ED
:0B10E6000F1210F10F1210F1E4FD0FCB
:0C10F100E42FF582E4347FF583EDF0225B
:100DFA00E4F5237524FF75250B7526B8C2A7C2B47E
:100E0A007F64FE121030D2B47F647E00121030C2AA
:100E1A00B47F647E00121030E52645256015E5246E
:100E2A0060117F0112115C8F24E526152670E915E1
:100E3A002580E5E526452560387D80E4FF1210F11E
:100E4A00752480E5264525601CE5245480FF3395EA
:100E5A00E04F60117F0112115C8F24E52615267080
:100E6A00E2152580DEE52645256006E52460058035
:0F0E7A00007523E7E5237005FDFF1210F1AF238C
:010E89002246
:100D6000EF64316002A1F47D087F091211297D48EA
:100D70007F111210F17D3F0F1210F17D050F12103F
:100D8000F17D2F0F1210F17D3F1210E67D887F1943
:100D90001210F17D340F1210F17DCD0F1210F17D84
:100DA000881210EA7D411210EA7D087F211210F1AD
:100DB0007D2C0F1210F17DFF1210E60F1210F10FB3
:100DC0001210F17D387F291210F17D0B0F1210F1F6
:100DD000E4FD7F2C1210F17D021F1210F1E4FD7F63
:100DE0002E1210F10F1210F17F017E00121030123E
:0A0DF00010FD80037FFF227F002228
:02113B00AE07FD
:0F113D00E4FC12115CAC07AF06ED4CFD0210F1A3
:02112900AE070F
:10112B00E4FC12115CAC07AF06EDF45CFD0210F1B0
:060A5F008B758A76897791
:100A6500C20375788812010424E67005757A108032
:100A750005757A28D203AB75AA76A977900004127A
:100A8500011D14604214602B24E2B40D0050479000
:100A95000A9E25E0500205837341C741C241C24108
:100AA500D641C241BD41BD41C241C241C241C2411F
:100AB500D141D6757B048021757B0F801C757B2900
:100AC5008017757B178012757B1F800D757B2580C0
:100AD50008757B408003757B86E4FDFF1210F17D70
:100AE5001A7F291210F17D047F2212113BAD7B7F05
:100AF5002C1210F17D061F1210F17D017F091211D4
:100B05003BE4FD7F011210F17D817F061210F17D1E
:100B15003F0F1210F17DB81F1210F1E4F57CF57D41
:100B2500AB75AA76A97790000112017EFFC3E57D1A
:100B35009FE57C95F05022E92403F9E43AFAE9258A
:100B45007DF9EA357CFA120104FD7F021210F105E8
:100B55007DE57D70CB057C80C77D1E7F011210F180
:100B6500757C65757D007F0712115C8F79E57D15B4
:100B75007D7002157CE57D457C6006E579557A60DA
:100B8500E520030AE57930E403E4F5788078E57D2E
:100B9500457C6072E57930E36D7F0A12115CEF5494
:100BA5000C70637F0412115C8F79EF75F008A4FF58
:100BB500AB75AA76A977900001E5F08FF01201B622
:100BC500E4F57CF57DC3E57D9579E57C94005026BB
:100BD5007F0212115CAB75E5772403F9E43576FAEB
:100BE500E9257DF9EA357CFAEF12016C057DE57D95
:100BF50070D3057C80CFAB75AA76A97790000312D8
:100C0500011D7002F5787D107F061210F1E4FD7F5D
:100C15002B1210F17F011210F17D807F1412112922
:020C2500AF78A6
:010C270022AA
:1010FD007F1112115CEF540360037F00227D037F8B
:06110D001112113B7F00EE
:0111130022B9
:100F7400B6FEC1BDC3D7B7B9202020202033D4AAE0
:100F840000CEF7BAECCAC1B3B4BCA6B5B02034D411
:100F9400AA00B3B4BFD5D0C4B2CB202020202035C2
:100FA400D4AA00BCE5B5B020202020202020203188
:040FB40030D4AA008B
:06114C00C2A1D2A28F80B7
:0A1152000000000000000000002271
:04109B007F057E004F
:10109F00EF1FAA0670011E4A600BE4FDEDC39472A8
:0510AF0050EE0D80F77A
:0110B4002219
:1010CE00D204300410C2A0D2A1D2A2E58033920481
:0710DE0012115280EDC2A2C5
:0110E50022E8
:0B10B5007F057E0012109FC2037F38F1
:0E10C0003003031210CEC2A012114CC2A222A5
:0B0FF5001210CED2A012114CC2A2229A
:100FB8007F0F1210B71210B51210B512109BD20382
:100FC8007F381210C012109BD2037F0C1210C0126F
:100FD800109BD2037F061210C01F7E0012109FD2F2
:0D0FE800037F011210C07F057E0002109FE4
:05100000752C107F803B
:101005008B2D8A2E892FAE2CD2031210C0AF061E4F
:10101500EF6017AB2D052FE52FAA2E7002052E14B4
:0A102500F9120104FF120FF580E339
:01102F00229E
:1004080075250075260075277F7523008F24E52440
:10041800640845237041D2037F011210C0AB25AA9E
:1004280026A92712010424DC60242496601024F7EE
:100438006014247570217BFF7A0F797480167BFF16
:100448007A0F7985800E7BFF7A0F799680067BFF7D
:100458007A0F79A7121000E5246410452360028101
:10046800ECD2037F011210C0AB25AA26A9271201DE
:100478000424DC60242496601024F760142475702A
:10048800217BFF7A0F797480167BFF7A0F7985803C
:100498000E7BFF7A0F799680067BFF7A0F79A71279
:1004A8001000AB25AA26A92790000812011D24DCFC
:1004B80060242496601024F76014247570267BFF4E
:1004C8007A0F797480167BFF7A0F7985800E7BFF0F
:1004D8007A0F799680067BFF7A0F79A7752C107FA3
:1004E80090121005E524641845236002A1BBD203CD
:1004F8007F011210C0AB25AA26A92712010424DC0B
:1005080060242496601024F76014247570217BFF02
:100518007A0F797480167BFF7A0F7985800E7BFFBE
:100528007A0F799680067BFF7A0F79A7121000ABB5
:1005380025AA26A92790000812011D24DC6024247E
:1005480096601024F76014247570267BFF7A0F7963
:100558007480167BFF7A0F7985800E7BFF7A0F797E
:100568009680067BFF7A0F79A7752C107F90121062
:1005780005AB25AA26A92790001012011D24DC60CE
:10058800242496601024F76014247570267BFF7A63
:100598000F797480167BFF7A0F7985800E7BFF7A3E
:1005A8000F799680067BFF7A0F79A7752C107F88C4
:1005B800121005E524642045236002C1CCD2037FD4
:1005C800011210C0AB25AA26A92712010424DC6059
:1005D800242496601024F76014247570217BFF7A18
:1005E8000F797480167BFF7A0F7985800E7BFF7AEE
:1005F8000F799680067BFF7A0F79A7121000AB253A
:10060800AA26A92790000812011D24DC602424963C
:10061800601024F76014247570267BFF7A0F7974B4
:1006280080167BFF7A0F7985800E7BFF7A0F79968B
:1006380080067BFF7A0F79A7752C107F9012100522
:10064800AB25AA26A92790001012011D24DC6024DE
:100658002496601024F76014247570267BFF7A0FA7
:10066800797480167BFF7A0F7985800E7BFF7A0F6D
:10067800799680067BFF7A0F79A7752C107F8812F0
:100688001005AB25AA26A92790001812011D24DC05
:1006980060242496601024F76014247570267BFF6C
:1006A8007A0F797480167BFF7A0F7985800E7BFF2D
:1006B8007A0F799680067BFF7A0F79A7752C107FC1
:0406C800981210056F
:0106CC00220B
:0606CD008F238D248B2514
:1006D30075720075730075742F7D807F1412112954
:1006E300752F1E852332753301752C02E52330E403
:1006F300097432252CF8A624052C7432252CF8A66F
:1007030025052CE5255407600CE525131313541F09
:1007130004F52D8009E525131313541FF52DE52D3D
:100723006016FF7E007432252CF9E4A801FCFDABB2
:1007330026AA27A9281200DEE52D252CF531E4335E
:10074300F530AB72AA73A974120A5F8F2EE52E706F
:1007530020E531645045306005752EF58013A82BD4
:10076300AC2AAD297B007A0079337E007F09120021
:03077300DEAF2EC8
:010776002260
:060C28008F238D248B25B3
:100C2E00E4900030F0A3F0F57275730075742F78B0
:100C3E000E7688AB29AA2AA92B12016C7D047F227D
:100C4E0012113B7D807F14121129752F1A852332C4
:100C5E00753301780C7602E52330E409E62432F888
:100C6E00A624780C06780CE62432F8A625780C0615
:100C7E00E5255407600CE525131313541F0408F6DD
:100C8E00800AE525131313541F780DF6780DE6FF31
:100C9E0060157E0018E62432F9E4A801FCFDAB26AF
:100CAE00AA27A9281200DE780CE6FF08E62FF531F8
:100CBE00E433F530AB72AA73A974120A5F780FA6EB
:100CCE0007E47811F618F675720075730075742FB7
:100CDE007D047F221211297D807F1412113B7D101D
:100CEE007F1112113B752F1EE4F530F531AB72AA50
:100CFE0073A974120A5F780FEFF67038E5316450FD
:100D0E004530703018F6AB29AA2AA92B74091201A6
:100D1E004A7811E675F009A4252EF9E52D35F0A8CF
:100D2E0001FCAD2C7B007A0079337E007F09120026
:100D3E00DE781106AB29AA2AA92B120104C394242A
:100D4E00500B781006E6C39410500281D5780EE64B
:010D5E00FF95
:010D5F002271
:03000000020E8A63
:0C0E8A00787FE4F6D8FD7581E4020ED1FB
:10000E00E709F608DFFA8046E709F208DFFA803ED4
:10001E0088828C83E709F0A3DFFA8032E309F608C1
:10002E00DFFA8078E309F208DFFA807088828C8329
:10003E00E309F0A3DFFA806489828A83E0A3F608DD
:10004E00DFFA805889828A83E0A3F208DFFA804CB7
:10005E0080D280FA80C680D4806980F2803380108E
:10006E0080A680EA809A80A880DA80E280CA8033F7
:10007E0089828A83ECFAE493A3C8C582C8CCC5836F
:10008E00CCF0A3C8C582C8CCC583CCDFE9DEE7803F
:10009E000D89828A83E493A3F608DFF9ECFAA9F0BE
:1000AE00EDFB2289828A83ECFAE0A3C8C582C8CC14
:1000BE00C583CCF0A3C8C582C8CCC583CCDFEADE2D
:1000CE00E880DB89828A83E493A3F208DFF980CC8F
:1000DE0088F0EF60010E4E60C388F0ED2402B40488
:1000EE000050B9F582EB2402B4040050AF2323452F
:0600FE00822390005E73F6
:10010400BB010689828A83E0225002E722BBFE02F9
:09011400E32289828A83E493222C
:10011D00BB010CE58229F582E5833AF583E0225097
:10012D0006E92582F8E622BBFE06E92582F8E222E1
:0D013D00E58229F582E5833AF583E49322FB
:10014A00BB010989828A83F8E028F022500327F745
:10015A0022BBFE05F8E328F3228A838982F8E49316
:02016A00282249
:10016C00BB010689828A83F0225002F722BBFE0172
:02017C00F3226C
:10017E00BB0110E58229F582E5833AF583E0F5F0BF
:10018E00A3E0225009E92582F886F008E622BBFE9C
:10019E000AE92582F8E2F5F008E222E5832AF583E2
:0801AE00E993F5F0A3E99322A7
:1001B600F8BB0111E58229F582E5833AF583E8F07B
:1001C600E5F0A3F0225009E92582C8F608A6F02238
:0D01D600BBFE09E92582C8F2E5F008F2221F
:1001E300EB9FF5F0EA9E42F0E99D42F0E89C45F072
:0101F30022E9
:0C01F400E6FC08E6FD08E6FE08E6FF2237
:0D020000E6FB08E6F908E6FA08E6CBF8226E
:0C020D00ECF608EDF608EEF608EFF6221D
:10021900D083D082E493F608740193F608740293AC
:09022900F608740393F6740473E3
:10023200E3F5F009E208B5F06BDFF58067E3F5F06E
:1002420009E608B5F05EDFF5805A87F009E608B5E1
:10025200F052DFF6804E87F009E208B5F046DFF68D
:10026200804288828C8387F009E0A3B5F036DFF6FE
:10027200803288828C8387F009E493A3B5F025DF6E
:10028200F5802188828C83E3F5F009E0A3B5F014B0
:10029200DFF5801088828C83E3F5F009E493A3B53F
:1002A200F002DFF4020361808780E9809080D480CD
:1002B2003E8015806E807E809D80B7808D80A38079
:1002C200518074803C02036D89828A83ECFAE49344
:1002D200F5F0A3C8C582C8CCC583CCE493A3C8C536
:1002E20082C8CCC583CCB5F076DFE3DEE1807089CD
:1002F200828A83E493F5F0A3E208B5F062DFF4802A
:100302005E89828A83E0F5F0A3E608B5F051DFF555
:10031200804D89828A83E0F5F0A3E208B5F040DFE0
:10032200F5803C89828A83E493F5F0A3E608B5F070
:100332002EDFF4802A8002805789828A83ECFAE4D5
:1003420093F5F0A3C8C582C8CCC583CCE0A3C8C5C9
:1003520082C8CCC583CCB5F006DFE4DEE280007F44
:10036200FFB5F0020F2240027F012289828A83ECCC
:10037200FAE0F5F0A3C8C582C8CCC583CCE0A3C817
:10038200C582C8CCC583CCB5F0D5DFE5DEE380CF2E
:1003920089828A83ECFAE0F5F0A3C8C582C8CCC58D
:1003A20083CCE493A3C8C582C8CCC583CCB5F0AFD7
:1003B200DFE4DEE280A988F0EF60010E4E60ABED73
:1003C2002402B404005098F582EB2402B4040050D5
:0A03D2008E23234582239002A973B5
:1003DC00EF4E6012EF60010EEDBB010B89828A8338
:1003EC00F0A3DFFCDEFA2289F05007F709DFFCA945
:0C03FC00F022BBFEFCF309DFFCA9F0229C
:100E9600020800E493A3F8E493A34003F68001F26A
:100EA60008DFF48029E493A3F85407240CC8C3335D
:100EB600C4540F4420C8834004F456800146F6DF2C
:100EC600E4800B0102040810204080901114E47E97
:100ED600019360BCA3FF543F30E509541FFEE49321
:100EE600A360010ECF54C025E060A840B8E493A3E8
:100EF600FAE493A3F8E493A3C8C582C8CAC583CA13
:100F0600F0A3C8C582C8CAC583CADFE9DEE780BECA
:0111280000C6
:00000001FF
